S01B0000546865726D616C436F6E74726F6C6C556E69742E737265634F
S11300000C9446000C9463000C9463000C946300FD
S11300100C9463000C9463000C9463000C946300D0
S11300200C9463000C9463000C9463000C946300C0
S11300300C9463000C9463000C9463000C946300B0
S11300400C9463000C9463000C9458030C946300A8
S11300500C948E030C9465000C9463000C94630060
S11300600C9463000C9463000C9463000C94630080
S11300700C9463000C9463000C9463000C94630070
S11300800C9463000C9468020C94630011241FBE4A
S1130090CFEFD0E1DEBFCDBF11E0A0E0B1E0E2E1FF
S11300A0FFE002C005900D92A236B107D9F721E016
S11300B0A2E6B1E001C01D92AA3EB207E1F70E9498
S11300C0D4030C9487070C9400001F920F920FB670
S11300D00F9211248F9381E0809300018F910F90F0
S11300E00FBE0F901F90189587B1806C87B986B1A9
S11300F08F6886B90895662399F0DC01ED91FC912F
S1130100119721E030E0A90112960C9002C0440F2F
S1130110551F0A94E2F7CA019081892B80830895C0
S1130120DC01ED91FC91119721E030E0A9011296D8
S11301300C9002C0440F551F0A94E2F7CA0180953F
S11301409081892380830895FC013081218161306D
S113015099F018F06230F1F0089581E090E00280A7
S113016002C0880F991F0A94E2F7E32FF22F8095BB
S1130170929189238083089581E090E0028002C0F7
S1130180880F991F0A94E2F7E32FF22F9291892B9B
S11301908083089581E090E0AC01028002C0440FA6
S11301A0551F0A94E2F7A32FB22F40952E914223B4
S11301B04C93A081B181028002C0880F991F0A94D8
S11301C0E2F780959C9189238C930895CF93DF93D4
S11301D0DC01ED91FC911197EF0122979881129621
S11301E02C91892F90E0022E02C0959587950A9450
S11301F0E2F780FF0CC081E090E002C0880F991FF5
S11302002A95E2F780959081892380830AC081E052
S113021090E002C0880F991F2A95E2F79081892BFC
S11302208083DF91CF910895982F92959F70990FB5
S1130230292F220F220F920F8F70890F08950F9389
S11302401F93CF93DF93CDB7DEB727970FB6F894FC
S1130250DEBF0FBECDBF8C0127E030E0AE014F5FA3
S11302605F4F60E082E30E94790289810E94140159
S1130270F80180838A810E941401F80181838B81B3
S11302800E941401F80182838C8187838D810E94EE
S11302901401F80183838E810E941401F801848380
S11302A08F810E94140190E0F8019683858327963C
S11302B00FB6F894DEBF0FBECDBFDF91CF911F9173
S11302C00F9108959DEC899F912D112496959695F3
S11302D09695392F330F232F220F220F230F821BC2
S11302E020E1929F800D112408950F931F93CF93C3
S11302F0DF93CDB7DEB727970FB6F894DEBF0FBEF6
S1130300CDBF8C01FC0180810E9462018983F801C8
S113031081810E9462018A83F80182810E946201C4
S11303208B83F80187818C8383810E9462018D8392
S1130330F80184810E9462018E83F80185810E9404
S113034062018F8327E030E0AE014F5F5F4F60E0D2
S113035082E30E94F40227960FB6F894DEBF0FBE24
S1130360CDBFDF91CF911F910F91089561E087E098
S113037091E00E94A40061E087E091E00E947B008C
S113038061E081E091E00E94A40061E081E091E0FD
S11303900E947B0061E084E091E00E94A40060E0A0
S11303A084E091E00E947B008DB1806D8DB98DB1A8
S11303B08DB98EB181608EB9089585EA80937400F9
S11303C080E090E005C00196803426E0920730F486
S11303D020910A012830B9F780E0089581E008955A
S11303E085E980937400089585EA8093740080E021
S11303F090E005C00196803426E0920730F4209105
S11304000A012031B9F780E0089581E0089585E874
S11304108093740080E090E005C00196803426E06B
S1130420920730F420910A012831B9F780E0089549
S113043081E0089585E88093740080E090E005C031
S11304400196803426E0920730F420910A01283284
S1130450B9F780E0089581E0089585E880937400F9
S113046080E090E005C00196803426E0920730F4E5
S113047020910A012034B9F780E0089581E00895BD
S1130480882389F085EC8093740080E090E005C0B7
S11304900196803426E09207B8F420910A012035B1
S11304A0B9F780E0089585E88093740080E090E0D7
S11304B005C00196803426E0920740F420910A0199
S11304C02835B9F780E0089581E0089581E0089522
S11304D01F920F920FB60F9211248F938091710087
S11304E0887F80930A018F910F900FBE0F901F9009
S11304F01895CF92DF92EF92FF920F931F93CF93B1
S1130500D82EC62E7A0189010E94DD01C82F8823C6
S113051021F00E94F0018C2F5FC08D2D880F8093F5
S113052073000E940702C82F882321F00E94F00163
S11305308C2F52C0C09273000E941A02C82F8823C5
S113054021F00E94F0018C2F47C00E94F401C82FB3
S1130550882321F00E94F0018C2F3EC08D2D90E065
S1130560880F991F8160809373000E942D02C82F09
S11305708823C1F00E94F0018C2F2EC081E00E94DC
S11305804002C82F882321F00E94F0018C2F24C040
S1130590F701EC0DFD1D8091730080838FEFC81A65
S11305A0D80A02C0C12CD12CC8010197C816D9069B
S11305B028F380E00E944002C82F882321F00E9483
S11305C0F0018C2F09C0F701EC0DFD1D8091730023
S11305D080830E94F0018C2FCF911F910F91FF9087
S11305E0EF90DF90CF900895CF92DF92EF92FF9239
S11305F00F931F93CF93182F062F6A0179010E943E
S1130600DD01C82F882321F00E94F0018C2F31C016
S1130610110F109373000E940702C82F882321F042
S11306200E94F0018C2F25C0009373000E941A02CF
S1130630C82F8823B1F00E94F0018C2F1AC0F60154
S1130640E00FF11F8081809373000E941A02C82F6B
S1130650882321F00E94F0018C2F0BC00F5F1F4FE5
S113066002C000E010E00E151F0548F30E94F001DF
S11306708C2FCF911F910F91FF90EF90DF90CF902F
S113068008959B01AC0160E072E18AE790E00E946A
S11306906D04DA01C9014097A109B109B695A7957E
S11306A0979587958093700085E0809374000895F2
S11306B01F920F920FB60F9211248F939F93EF9373
S11306C0FF93E091E201F091E3018CB1EE59FE4F0A
S11306D08083E091E201F091E301EE59FE4F8081C5
S11306E08D3051F481E080930B01E091E201F091AF
S11306F0E301ED59FE4F10828091E2019091E301F4
S113070001969093E3018093E201FF91EF919F9111
S11307108F910F900FBE0F901F9018951F920F92FC
S11307200FB60F9211248F9381E080930C018F9167
S11307300F900FBE0F901F901895442329F02BB1F2
S113074022602BB9A8E001C0A0E1B0E09B01AC019C
S11307500E948F049B01AC0160E072E18AE790E0A3
S11307600E946D04BA01A90141505109610971093E
S1130770DB01CA0188279F70AA27BB27892F9A2FDC
S1130780AB2FBB278093900049B98AB1886D8AB991
S113079086E880939500089590910C019923E1F3E4
S11307A010920C018CB9089541E060E970ED83E08A
S11307B090E00E949D0360E87AE186E090E00E9468
S11307C041038FEF84BB85BB61E087E291E00E9427
S11307D0A40061E087E291E00E947B0061E084E292
S11307E091E00E94A40061E084E291E00E947B0019
S11307F061E081E291E00E94A40061E081E291E085
S11308000E947B0061E08EE191E00E94A40061E01F
S11308108EE191E00E947B0061E08BE191E00E9417
S1130820A40061E08BE191E00E947B0078948AE26D
S113083091E09093E7018093E6018DE091E00E94BE
S113084075010E9474000E94B60161E085E191E0A7
S11308500E947B002FEF84E39CE021508040904075
S1130860E1F700C0000060E085E191E00E947B00B8
S11308702FEF84E39CE0215080409040E1F700C0DA
S1130880000088E191E00E94E6008DE091E00E9482
S11308901F01EDE0F1E04081318122819481838167
S11308A01F924F931F923F931F922F9326812F9352
S11308B025812F931F929F931F928F9388E391E03A
S11308C09F938F930E94A9048DB79EB70E960FB67F
S11308D0F8949EBF0FBE8DBFB8CFA1E21A2EAA1BFB
S11308E0BB1BFD010DC0AA1FBB1FEE1FFF1FA217DC
S11308F0B307E407F50720F0A21BB30BE40BF50BD9
S1130900661F771F881F991F1A9469F76095709561
S1130910809590959B01AC01BD01CF0108950E9483
S11309209A04A59F900DB49F900DA49F800D911DD6
S113093011240895A29FB001B39FC001A39F700D1D
S1130940811D1124911DB29F700D811D1124911DD3
S11309500895A0E0B0E0EFEAF4E00C946007AE0183
S11309604B5F5F4FFA0161917191AF018091E60194
S11309709091E7010E94BF04E2E00C947C07ABE095
S1130980B0E0E5ECF4E00C9450076C017B018A01C3
S1130990FC0117821682838181FFCCC1CE010196AE
S11309A03C01F6019381F70193FD859193FF8191B9
S11309B07F01882309F4BAC1853239F493FD859106
S11309C093FF81917F01853229F4B60190E00E9462
S11309D0B606E7CF912C212C312CFFE1F315D8F08A
S11309E08B3279F038F4803279F08332A1F4232DFC
S11309F020611DC08D3261F0803369F4232D2160A4
S1130A0016C0832D8260382EE32DE4603E2E2AC06A
S1130A10F32DF8601DC037FC2DC020ED280F2A30BF
S1130A2040F08E32B9F436FC81C1232D2064322E7D
S1130A3019C036FE06C08AE0989E200D1124922E1D
S1130A4011C0EAE02E9E200D1124222EF32DF06217
S1130A503F2E08C08C3621F4832D8068382E02C0C6
S1130A60883641F4F70193FD859193FF81917F01CD
S1130A708111B3CF982F9F7D9554933028F40C5F48
S1130A801F4F9FE399830DC0833631F0833771F094
S1130A90833509F059C021C0F801808189830E5F34
S1130AA01F4F88248394912C530113C02801F2E032
S1130AB04F0E511CF801A080B18036FE03C0692D91
S1130AC070E002C06FEF7FEFC5010E94AB064C01DE
S1130AD08201F32DFF773F2E16C0280122E0420E3B
S1130AE0511CF801A080B18036FE03C0692D70E06E
S1130AF002C06FEF7FEFC5010E94A0064C01F32DE9
S1130B00F0683F2E820133FC1BC0822D90E08816D2
S1130B109906B0F4B60180E290E00E94B6062A94E9
S1130B20F4CFF50137FC859137FE81915F01B60161
S1130B3090E00E94B60621102A9421E0821A9108BE
S1130B408114910471F7E8C0843611F0893641F5B7
S1130B50F80137FE07C060817181828193810C5F47
S1130B601F4F08C060817181072E000C880B990B00
S1130B700E5F1F4FF32DFF763F2E97FF09C0909510
S1130B808095709561957F4F8F4F9F4FF0683F2EF2
S1130B902AE030E0A3010E94F206882E861845C0A0
S1130BA0853731F4232D2F7EB22E2AE030E025C084
S1130BB0932D997FB92E8F36C1F018F4883579F0CA
S1130BC0B5C0803719F0883721F0B0C0E92FE06153
S1130BD0BE2EB4FE0DC0FB2DF460BF2E09C034FE42
S1130BE00AC0292F2660B22E06C028E030E005C0D6
S1130BF020E130E002C020E132E0F801B7FE07C096
S1130C0060817181828193810C5F1F4F06C0608176
S1130C10718180E090E00E5F1F4FA3010E94F206F5
S1130C20882E8618FB2DFF773F2E36FE0DC0232D10
S1130C302E7FA22E891458F434FE0BC032FC09C056
S1130C40832D8E7EA82E05C0B82CA32C03C0B82CEF
S1130C5001C0B92CA4FE0FC0FE01E80DF11D808176
S1130C60803321F49A2D997EA92E09C0A2FE06C0D4
S1130C70B394B39404C08A2D867809F0B394A3FC8A
S1130C8011C0A0FE06C0B21488F4280C922C9B1844
S1130C900EC0B21460F4B60180E290E00E94B60681
S1130CA0B394F7CFB21418F42B1802C0982C212C4B
S1130CB0A4FE10C0B60180E390E00E94B606A2FE36
S1130CC017C0A1FC03C088E790E002C088E590E06B
S1130CD0B6010CC08A2D867859F0A1FE02C08BE2C1
S1130CE001C080E2A7FC8DE2B60190E00E94B60646
S1130CF0891438F4B60180E390E00E94B6069A9411
S1130D00F7CF8A94F301E80DF11D8081B60190E0DC
S1130D100E94B6068110F5CF222009F442CEB60116
S1130D2080E290E00E94B6062A94F6CFF60186810E
S1130D30978102C08FEF9FEF2B96E2E10C946C0732
S1130D40FC010590615070400110D8F78095909592
S1130D508E0F9F1F0895FC01615070400190011097
S1130D60D8F7809590958E0F9F1F08950F931F932A
S1130D70CF93DF93FB01238121FD03C08FEF9FEF0E
S1130D802CC022FF16C04681578124813581421729
S1130D90530744F4A081B1819D012F5F3F4F3183FC
S1130DA020838C93268137812F5F3F4F378326839F
S1130DB014C08B01EC01FB010084F185E02D099541
S1130DC0892BE1F6D80116968D919C91179701967F
S1130DD017969C938E931697CE01DF91CF911F9116
S1130DE00F910895FA01AA27283051F1203181F199
S1130DF0E8946F936E7F6E5F7F4F8F4F9F4FAF4F1F
S1130E00B1E03ED0B4E03CD0670F781F891F9A1F31
S1130E10A11D680F791F8A1F911DA11D6A0F711DE5
S1130E20811D911DA11D20D009F468943F912AE0F1
S1130E30269F11243019305D3193DEF6CF010895D9
S1130E40462F4770405D4193B3E00FD0C9F7F6CF0A
S1130E50462F4F70405D4A3318F0495D31FD4052D2
S1130E60419302D0A9F7EACFB4E0A6959795879568
S1130E7077956795BA95C9F7009761057105089547
S1130E809B01AC010A2E06945795479537952795F3
S1130E90BA95C9F7620F731F841F951FA01D08958B
S1130EA02F923F924F925F926F927F928F929F9276
S1130EB0AF92BF92CF92DF92EF92FF920F931F9364
S1130EC0CF93DF93CDB7DEB7CA1BDB0B0FB6F89415
S1130ED0DEBF0FBECDBF09942A88398848885F8455
S1130EE06E847D848C849B84AA84B984C884DF80C6
S1130EF0EE80FD800C811B81AA81B981CE0FD11DAA
S1130F000FB6F894DEBF0FBECDBFED010895F8947F
S1050F10FFCF0D
S1130F1201380000380001380002F80101003410E1
S1130F221B0A170006350002350000650002650041
S1130F3200650001320005320004000000020000D6
S1130F420000CC030000000054696D653A2025308E
S1130F5232642D253032642D3230253032643B2008
S1130F62253032643A253032643A253032640D0A2F
S1050F72000079
S9030000FC
