S01B0000546865726D616C436F6E74726F6C6C556E69742E737265634F
S11300000C9473000C9490000C9490000C94900049
S11300100C9490000C9490000C9490000C9490001C
S11300200C9490000C9490000C9490000C9490000C
S11300300C9490000C9490000C9490000C949000FC
S11300400C9490000C9490000C9401040C94900077
S11300500C9437040C9492000C9490000C9490002F
S11300600C9490000C9490000C9490000C949000CC
S11300700C9490000C9490000C9490000C949000BC
S11300800C9490000C9411030C9490000800000050
S1130090BE922449123EABAAAA2ABECDCCCC4C3E79
S11300A000000080BEABAAAAAA3E00000000BF0068
S11300B00000803F0000000000084178D3BB438764
S11300C0D1133D190E3CC3BD4282AD2B3E68EC8278
S11300D076BED98FE1A93E4C80EFFFBE01C4FF7FFD
S11300E03F000000000011241FBECFEFD0E1DEBFAF
S11300F0CDBF11E0A0E0B1E0E8E9F5E102C0059070
S11301000D92AC36B107D9F721E0ACE6B1E001C0FD
S11301101D92A43FB207E1F70E947D040C94CA0A21
S11301200C9400001F920F920FB60F9211248F931C
S113013081E0809300018F910F900FBE0F901F906C
S1130140189587B1806487B986B18F6886B9089598
S113015097B1907F97B997B1892B87B9089586B1E4
S1130160806886B91092000186B1806486B9809156
S113017000018823E1F324B185B196B19F7796B944
S113018090E0982F8827822B08950E94A8000E944F
S1130190AF000895CF92DF92EF92FF92CF93DF9357
S11301A060E074E0EB01C81BD90BBC0180E090E077
S11301B00E9430066B017C01BE0180E090E00E9449
S11301C03006A70196010E9488059B01AC0160E0FE
S11301D070E48CE196E40E94880520E030E44CE170
S11301E056E40E9488050E94C60620E030EE46E7E9
S11301F055E40E9488052FE03FEC4BE55BE30E9449
S11302001C059B01AC0160E070E080E89FE30E9464
S1130210880523E333E948E853E40E941B0520E002
S113022030E040E251E40E940E070E94FA05CB013F
S1130230DF91CF91FF90EF90DF90CF9008950E94CF
S1130240C5000E94CA000895662399F0DC01ED916F
S1130250FC91119721E030E0A90112960C9002C0A4
S1130260440F551F0A94E2F7CA019081892B8083B9
S11302700895DC01ED91FC91119721E030E0A90192
S113028012960C9002C0440F551F0A94E2F7CA015B
S113029080959081892380830895FC013081218198
S11302A0613099F018F06230F1F0089581E090E047
S11302B0028002C0880F991F0A94E2F7E32FF22FFD
S11302C08095929189238083089581E090E0028053
S11302D002C0880F991F0A94E2F7E32FF22F92913C
S11302E0892B8083089581E090E0AC01028002C0F4
S11302F0440F551F0A94E2F7A32FB22F40952E9175
S113030042234C93A081B181028002C0880F991FBF
S11303100A94E2F780959C9189238C930895CF9356
S1130320DF93DC01ED91FC911197EF012297988105
S113033012962C91892F90E0022E02C095958795F4
S11303400A94E2F780FF0CC081E090E002C0880FBD
S1130350991F2A95E2F780959081892380830AC0AA
S113036081E090E002C0880F991F2A95E2F79081FE
S1130370892B8083DF91CF910895982F92959F7058
S1130380990F292F220F220F920F8F70890F089532
S11303900F931F93CF93DF93CDB7DEB727970FB695
S11303A0F894DEBF0FBECDBF8C0127E030E0AE0174
S11303B04F5F5F4F60E082E30E94220389810E94C5
S11303C0BD01F80180838A810E94BD01F801818307
S11303D08B810E94BD01F80182838C8187838D818A
S11303E00E94BD01F80183838E810E94BD01F80142
S11303F084838F810E94BD0190E0F80196838583F8
S113040027960FB6F894DEBF0FBECDBFDF91CF9114
S11304101F910F9108959DEC899F912D112496951C
S113042096959695392F330F232F220F220F230FE2
S1130430821B20E1929F800D112408950F931F9336
S1130440CF93DF93CDB7DEB727970FB6F894DEBF0F
S11304500FBECDBF8C01FC0180810E940B028983F9
S1130460F80181810E940B028A83F80182810E9433
S11304700B028B83F80187818C8383810E940B029A
S11304808D83F80184810E940B028E83F80185819B
S11304900E940B028F8327E030E0AE014F5F5F4F75
S11304A060E082E30E949D0327960FB6F894DEBFB6
S11304B00FBECDBFDF91CF911F910F91089561E0E1
S11304C087E091E00E944D0161E087E091E00E94A5
S11304D0240161E081E091E00E944D0161E081E04E
S11304E091E00E94240161E084E091E00E944D01CA
S11304F060E084E091E00E9424018DB1806D8DB9AB
S11305008DB18DB98EB181608EB9089585EA8093DD
S1130510740080E090E005C00196803426E09207E4
S113052030F420910A012830B9F780E0089581E081
S1130530089585E980937400089585EA8093740092
S113054080E090E005C00196803426E0920730F404
S113055020910A012031B9F780E0089581E00895DF
S113056085E88093740080E090E005C001968034B3
S113057026E0920730F420910A012831B9F780E08F
S1130580089581E0089585E88093740080E090E008
S113059005C00196803426E0920730F420910A01C8
S11305A02832B9F780E0089581E0089585E88093C2
S11305B0740080E090E005C00196803426E0920744
S11305C030F420910A012034B9F780E0089581E0E5
S11305D00895882389F085EC8093740080E090E08E
S11305E005C00196803426E09207B8F420910A01F0
S11305F02035B9F780E0089585E88093740080E0A1
S113060090E005C00196803426E0920740F42091E2
S11306100A012835B9F780E0089581E0089581E062
S113062008951F920F920FB60F9211248F93809109
S11306307100887F80930A018F910F900FBE0F90F5
S11306401F901895CF92DF92EF92FF920F931F9312
S1130650CF93D82EC62E7A0189010E948602C82F14
S1130660882321F00E9499028C2F5FC08D2D880F62
S1130670809373000E94B002C82F882321F00E9447
S113068099028C2F52C0C09273000E94C302C82FDB
S1130690882321F00E9499028C2F47C00E949D025A
S11306A0C82F882321F00E9499028C2F3EC08D2DE3
S11306B090E0880F991F8160809373000E94D60296
S11306C0C82F8823C1F00E9499028C2F2EC081E08C
S11306D00E94E902C82F882321F00E9499028C2FDE
S11306E024C0F701EC0DFD1D8091730080838FEF12
S11306F0C81AD80A02C0C12CD12CC8010197C81647
S1130700D90628F380E00E94E902C82F882321F04B
S11307100E9499028C2F09C0F701EC0DFD1D8091F8
S1130720730080830E9499028C2FCF911F910F91A7
S1130730FF90EF90DF90CF900895CF92DF92EF92E9
S1130740FF920F931F93CF93182F062F6A017901FD
S11307500E948602C82F882321F00E9499028C2FC0
S113076031C0110F109373000E94B002C82F882368
S113077021F00E9499028C2F25C0009373000E94DF
S1130780C302C82F8823B1F00E9499028C2F1AC08B
S1130790F601E00FF11F8081809373000E94C30271
S11307A0C82F882321F00E9499028C2F0BC00F5F61
S11307B01F4F02C000E010E00E151F0548F30E9411
S11307C099028C2FCF911F910F91FF90EF90DF90A2
S11307D0CF9008959B01AC0160E072E18AE790E05C
S11307E00E94B007DA01C9014097A109B109B69581
S11307F0A795979587958093700085E08093740002
S113080008951F920F920FB60F9211248F939F9306
S1130810EF93FF93E091EC01F091ED018CB1E45979
S1130820FE4F8083E091EC01F091ED01E459FE4F1D
S113083080818D3051F481E080930B01E091EC01D3
S1130840F091ED01E359FE4F10828091EC019091FB
S1130850ED0101969093ED018093EC01FF91EF91EE
S11308609F918F910F900FBE0F901F9018951F921C
S11308700F920FB60F9211248F9381E080930C0195
S11308808F910F900FBE0F901F901895442329F05D
S11308902BB122602BB9A8E001C0A0E1B0E09B011C
S11308A0AC010E94D2079B01AC0160E072E18AE7CF
S11308B090E00E94B007BA01A901415051096109B1
S11308C07109DB01CA0188279F70AA27BB27892FDA
S11308D09A2FAB2FBB278093900049B98AB1886DBA
S11308E08AB986E880939500089590910C01992324
S11308F0E1F310920C018CB9089541E060E970EDC8
S113090083E090E00E94460460E87AE186E090E0AB
S11309100E94EA038FEF84BB85BB61E087E291E02C
S11309200E944D0161E087E291E00E94240161E0B0
S113093084E291E00E944D0161E084E291E00E9432
S1130940240161E081E291E00E944D0161E081E2D5
S113095091E00E94240161E08EE191E00E944D014A
S113096061E08EE191E00E94240161E08BE191E07D
S11309700E944D0161E08BE191E00E942401789492
S11309808AE291E09093F1018093F0018DE091E08F
S11309900E941E020E94A1000E945F0261E085E1A4
S11309A091E00E9424012FEF84E39CE021508040D9
S11309B09040E1F700C0000060E085E191E00E9412
S11309C024012FEF84E39CE0215080409040E1F724
S11309D000C0000088E191E00E948F018DE091E069
S11309E00E94C80181E00E941F01EDE0F1E06081F6
S11309F051814281348123819F938F931F926F93FE
S1130A001F925F931F924F9386818F9385818F935B
S1130A101F923F931F922F9388E391E09F938F93AC
S1130A200E94EC078DB79EB740960FB6F8949EBF10
S1130A300FBE8DBFB3CF5058BB27AA270E943305E2
S1130A400C9484060E94760638F00E947D0620F0FD
S1130A5039F49F3F19F426F40C9473060EF4E095D0
S1130A60E7FB0C946D06E92F0E94950658F3BA171C
S1130A70620773078407950720F079F4A6F50C94B0
S1130A80B7060EF4E0950B2EBA2FA02D0B01B90179
S1130A9090010C01CA01A0011124FF27591B99F0F0
S1130AA0593F50F4503E68F11A16F040A22F232FFC
S1130AB0342F4427585FF3CF469537952795A7954C
S1130AC0F0405395C9F77EF41F16BA0B620B730BF3
S1130AD0840BBAF09150A1F0FF0FBB1F661F771F64
S1130AE0881FC2F70EC0BA0F621F731F841F48F419
S1130AF0879577956795B795F7959E3F08F0B0CFA2
S1130B009395880F08F09927EE0F97958795089588
S1130B100E949C050C9484060E947D0658F00E9455
S1130B20760640F029F45F3F29F00C946D065111CC
S1130B300C94B8060C9473060E94950668F39923E6
S1130B40B1F3552391F3951B550BBB27AA276217C5
S1130B507307840738F09F5F5F4F220F331F441FD2
S1130B60AA1FA9F335D00E2E3AF0E0E832D0915006
S1130B705040E695001CCAF72BD0FE2F29D0660FF3
S1130B80771F881FBB1F261737074807AB07B0E836
S1130B9009F0BB0B802DBF01FF2793585F4F3AF03C
S1130BA09E3F510578F00C946D060C94B8065F3F97
S1130BB0E4F3983ED4F3869577956795B795F795C2
S1130BC09F5FC9F7880F911D9695879597F90895AA
S1130BD0E1E0660F771F881FBB1F62177307840746
S1130BE0BA0720F0621B730B840BBA0BEE1F88F755
S1130BF0E09508950E9401066894B1110C94B8061A
S1130C0008950E949D0688F09F5798F0B92F992760
S1130C10B751B0F0E1F0660F771F881F991F1AF0E3
S1130C20BA95C9F714C0B13091F00E94B706B1E08B
S1130C3008950C94B706672F782F8827B85F39F08A
S1130C40B93FCCF3869577956795B395D9F73EF47C
S1130C5090958095709561957F4F8F4F9F4F089524
S1130C60E89409C097FB3EF4909580957095619542
S1130C707F4F8F4F9F4F9923A9F0F92F96E9BB27F8
S1130C809395F695879577956795B795F111F8CF74
S1130C90FAF4BB0F11F460FF1BC06F5F7F4F8F4FDF
S1130CA09F4F16C0882311F096E911C0772321F0D5
S1130CB09EE8872F762F05C0662371F096E8862F6D
S1130CC070E060E02AF09A95660F771F881FDAF7C4
S1130CD0880F9695879597F9089597F99F6780E807
S1130CE070E060E008959FEF80EC089500240A947A
S1130CF01616170618060906089500240A941216F3
S1130D001306140605060895092E0394000C11F425
S1130D10882352F0BB0F40F4BF2B11F460FF04C0D2
S1130D206F5F7F4F8F4F9F4F089557FD9058440F2B
S1130D30551F59F05F3F71F04795880F97FB991F36
S1130D4061F09F3F79F087950895121613061406F3
S1130D50551FF2CF4695F1DF08C016161706180680
S1130D60991FF1CF86957105610508940895E8945B
S1130D70BB2766277727CB0197F9089516F00C94C3
S1130D807B070C94730668940C946D060E949D0670
S1130D90A8F39923C1F3AEF3DF93CF931F930F937B
S1130DA0FF92C92FDD2788232AF02197660F771F2A
S1130DB0881FDAF720E030E040E85FEB9FE38839F2
S1130DC020F0803E38F021968F770E941C05ECE8D5
S1130DD0F0E004C00E941C05E9EBF0E00E948907E2
S1130DE08B01BE01EC01FB2E6F5771097595771FBE
S1130DF0880B990B0E94320628E132E741E35FE356
S1130E000E942107AF2D9801AE01FF900F911F9111
S1130E10CF91DF910E9433050C9484060E94210730
S1130E200C9484060E94760638F00E947D0620F019
S1130E30952311F00C946D060C94730611240C94F4
S1130E40B8060E94950670F3959FC1F3950F50E084
S1130E50551F629FF001729FBB27F00DB11D639F68
S1130E60AA27F00DB11DAA1F649F6627B00DA11D0E
S1130E70661F829F2227B00DA11D621F739FB00DB4
S1130E80A11D621F839FA00D611D221F749F332724
S1130E90A00D611D231F849F600D211D822F762FBD
S1130EA06A2F11249F5750409AF0F1F088234AF09A
S1130EB0EE0FFF1FBB1F661F771F881F9150504006
S1130EC0A9F79E3F510580F00C946D060C94B8066A
S1130ED05F3FE4F3983ED4F3869577956795B7958D
S1130EE0F795E7959F5FC1F7FE2B880F911D9695A7
S1130EF0879597F908959F3F31F0915020F4879595
S1130F0077956795B795880F911D9695879597F96D
S1130F100895DF93CF931F930F93FF92EF92DF9285
S1130F207B018C01689406C0DA2EEF010E94210730
S1130F30FE01E894A5912591359145915591A6F32B
S1130F40EF010E943305FE019701A801DA9469F7C5
S1130F50DF90EF90FF900F911F91CF91DF91089553
S1130F60A1E21A2EAA1BBB1BFD010DC0AA1FBB1FA9
S1130F70EE1FFF1FA217B307E407F50720F0A21B1B
S1130F80B30BE40BF50B661F771F881F991F1A9488
S1130F9069F760957095809590959B01AC01BD01B2
S1130FA0CF0108950E94DD07A59F900DB49F900D79
S1130FB0A49F800D911D11240895A29FB001B39F99
S1130FC0C001A39F700D811D1124911DB29F700D4E
S1130FD0811D1124911D0895A0E0B0E0E2EFF7E037
S1130FE00C94A30AAE014B5F5F4FFA0161917191BA
S1130FF0AF018091F0019091F1010E940208E2E0BA
S11310000C94BF0AABE0B0E0E8E0F8E00C94930A7B
S11310106C017B018A01FC0117821682838181FFA6
S1131020CCC1CE0101963C01F6019381F70193FDF9
S1131030859193FF81917F01882309F4BAC1853298
S113104039F493FD859193FF81917F01853229F4D1
S1131050B60190E00E94F909E7CF912C212C312CA4
S1131060FFE1F315D8F08B3279F038F4803279F05F
S11310708332A1F4232D20611DC08D3261F08033B1
S113108069F4232D216016C0832D8260382EE32D50
S1131090E4603E2E2AC0F32DF8601DC037FC2DC03D
S11310A020ED280F2A3040F08E32B9F436FC81C18D
S11310B0232D2064322E19C036FE06C08AE0989E85
S11310C0200D1124922E11C0EAE02E9E200D112431
S11310D0222EF32DF0623F2E08C08C3621F4832D8E
S11310E08068382E02C0883641F4F70193FD85915B
S11310F093FF81917F018111B3CF982F9F7D9554E8
S1131100933028F40C5F1F4F9FE399830DC08336FF
S113111031F0833771F0833509F059C021C0F801EB
S1131120808189830E5F1F4F88248394912C5301FF
S113113013C02801F2E04F0E511CF801A080B180C9
S113114036FE03C0692D70E002C06FEF7FEFC5016A
S11311500E94EE094C018201F32DFF773F2E16C049
S1131160280122E0420E511CF801A080B18036FE15
S113117003C0692D70E002C06FEF7FEFC5010E94CC
S1131180E3094C01F32DF0683F2E820133FC1BC0B0
S1131190822D90E088169906B0F4B60180E290E0C2
S11311A00E94F9092A94F4CFF50137FC859137FEA2
S11311B081915F01B60190E00E94F90921102A94FF
S11311C021E0821A91088114910471F7E8C08436F1
S11311D011F0893641F5F80137FE07C0608171814D
S11311E0828193810C5F1F4F08C060817181072E3B
S11311F0000C880B990B0E5F1F4FF32DFF763F2ECB
S113120097FF09C090958095709561957F4F8F4F9A
S11312109F4FF0683F2E2AE030E0A3010E94350A78
S1131220882E861845C0853731F4232D2F7EB22EA3
S11312302AE030E025C0932D997FB92E8F36C1F076
S113124018F4883579F0B5C0803719F0883721F063
S1131250B0C0E92FE061BE2EB4FE0DC0FB2DF460DA
S1131260BF2E09C034FE0AC0292F2660B22E06C044
S113127028E030E005C020E130E002C020E132E0A7
S1131280F801B7FE07C060817181828193810C5F90
S11312901F4F06C06081718180E090E00E5F1F4F98
S11312A0A3010E94350A882E8618FB2DFF773F2E56
S11312B036FE0DC0232D2E7FA22E891458F434FE41
S11312C00BC032FC09C0832D8E7EA82E05C0B82C1D
S11312D0A32C03C0B82C01C0B92CA4FE0FC0FE017E
S11312E0E80DF11D8081803321F49A2D997EA92E79
S11312F009C0A2FE06C0B394B39404C08A2D8678B4
S113130009F0B394A3FC11C0A0FE06C0B21488F483
S1131310280C922C9B180EC0B21460F4B60180E223
S113132090E00E94F909B394F7CFB21418F42B1883
S113133002C0982C212CA4FE10C0B60180E390E0DA
S11313400E94F909A2FE17C0A1FC03C088E790E03F
S113135002C088E590E0B6010CC08A2D867859F069
S1131360A1FE02C08BE201C080E2A7FC8DE2B601BF
S113137090E00E94F909891438F4B60180E390E002
S11313800E94F9099A94F7CF8A94F301E80DF11DAC
S11313908081B60190E00E94F9098110F5CF2220E6
S11313A009F442CEB60180E290E00E94F9092A9441
S11313B0F6CFF6018681978102C08FEF9FEF2B96BF
S11313C0E2E10C94AF0AFC010590615070400110F9
S11313D0D8F7809590958E0F9F1F0895FC0161505A
S11313E0704001900110D8F7809590958E0F9F1F43
S11313F008950F931F93CF93DF93FB01238121FD66
S113140003C08FEF9FEF2CC022FF16C04681578187
S1131410248135814217530744F4A081B1819D0191
S11314202F5F3F4F318320838C93268137812F5F39
S11314303F4F3783268314C08B01EC01FB010084EA
S1131440F185E02D0995892BE1F6D80116968D9149
S11314509C911797019617969C938E931697CE019D
S1131460DF91CF911F910F910895FA01AA27283097
S113147051F1203181F1E8946F936E7F6E5F7F4F5D
S11314808F4F9F4FAF4FB1E03ED0B4E03CD0670FD9
S1131490781F891F9A1FA11D680F791F8A1F911D2C
S11314A0A11D6A0F711D811D911DA11D20D009F47C
S11314B068943F912AE0269F11243019305D3193BE
S11314C0DEF6CF010895462F4770405D4193B3E0A7
S11314D00FD0C9F7F6CF462F4F70405D4A3318F04E
S11314E0495D31FD4052419302D0A9F7EACFB4E0FF
S11314F0A6959795879577956795BA95C9F70097B7
S11315006105710508959B01AC010A2E0694579557
S1131510479537952795BA95C9F7620F731F841FAE
S1131520951FA01D08952F923F924F925F926F9244
S11315307F928F929F92AF92BF92CF92DF92EF925F
S1131540FF920F931F93CF93DF93CDB7DEB7CA1BE0
S1131550DB0B0FB6F894DEBF0FBECDBF09942A880B
S1131560398848885F846E847D848C849B84AA84B3
S1131570B984C884DF80EE80FD800C811B81AA8140
S1131580B981CE0FD11D0FB6F894DEBF0FBECDBF0B
S10B1590ED010895F894FFCF6A
S113159801380000380001380002F8010100341055
S11315A81B0A1700063500023500006500026500B5
S11315B8006500013200053200040000000200004A
S11315C8000075040000000054696D653A20253058
S11315D832642D253032642D3230253032643B207C
S11315E8253032643A253032643A253032643B205F
S10F15F84E54433A20253033640D0A00A1
S9030000FC
